:0701DB0068656C6C6F2100E8
:10019D007580FFC2B5D2B6D2B4AF80C2B4EF20E73E
:0101AD00F65B
:0101AE00222E
:1001AF00AE0712019DC2B5C2B68E80D2B4C2B422C0
:1001BF00AE0712019DD2B5C2B68E80D2B4C2B422A0
:10017200AE07AC03ED6003430640430680AF0612B0
:0701820001AFAF040201BF51
:100112008B0F8A108911ED60034307404307801259
:1001220001AFAB0FAA10A9111200F960130511E576
:10013200117002051014F91200F9FF1201BF80E2DA
:01014200229A
:100189007F381201AF7F0C1201AF7F061201AF7FDA
:04019900010201AFAF
:1001430078087C007D007BFF7A0179DB7E007F07E6
:100153001200D3C2A6C2A71201897B007A007908D4
:0F016300E4FDFF1201127B417F0A12017280FE40
:030000000201CF2B
:0C01CF00787FE4F6D8FD75811102014331
:10000300E709F608DFFA8046E709F208DFFA803EDF
:1000130088828C83E709F0A3DFFA8032E309F608CC
:10002300DFFA8078E309F208DFFA807088828C8334
:10003300E309F0A3DFFA806489828A83E0A3F608E8
:10004300DFFA805889828A83E0A3F208DFFA804CC2
:1000530080D280FA80C680D4806980F28033801099
:1000630080A680EA809A80A880DA80E280CA803302
:1000730089828A83ECFAE493A3C8C582C8CCC5837A
:10008300CCF0A3C8C582C8CCC583CCDFE9DEE7804A
:100093000D89828A83E493A3F608DFF9ECFAA9F0C9
:1000A300EDFB2289828A83ECFAE0A3C8C582C8CC1F
:1000B300C583CCF0A3C8C582C8CCC583CCDFEADE38
:1000C300E880DB89828A83E493A3F208DFF980CC9A
:1000D30088F0EF60010E4E60C388F0ED2402B40493
:1000E3000050B9F582EB2402B4040050AF2323453A
:0600F3008223900053730C
:1000F900BB010689828A83E0225002E722BBFE0205
:09010900E32289828A83E4932237
:00000001FF
