:1003CB00446174653A0054696D653A0068656C6CFC
:0203DB006F00B1
:09040E000711323A170F02011028
:10033F00D3EF9400EE940040147D727C00ED1D709D
:0D034F00011CED4C70F7EF1F70E61E80E3FF
:01035C00227E
:1003B9007580FFC2B5D2B6D2B4AF80C2B4EF20E720
:0103C900F63D
:0103CA002210
:1003EE00AE071203B9C2B5C2B68E80D2B4C2B42261
:1003FE00AE071203B9D2B5C2B68E80D2B4C2B42241
:10037A00AE07AC03ED6003430640430680AF0612A6
:07038A0003EEAF040203FEC5
:100291008B0E8A0F8910ED600343074043078012DC
:1002A10003EEAB0EAA0FA9101200F960130510E5B9
:1002B100107002050F14F91200F9FF1203FE80E21B
:0102C100221A
:10035D008F0EAA03A905050EEAC4540F2430FB1213
:0D036D00037AEA540F2430FBAF0E02037A2E
:100391007F381203EE7F0C1203EE7F061203EE7F0D
:0403A100010203EE64
:1002F100C292C290D292E4FEC290EF139291D29038
:10030100EFC313FF0EBE08F0E4FEC290ED1392910D
:0A031100D290EDC313FD0EBE08F0FC
:01031B0022BF
:1002C200C292C290D292E4FDC290EF139291D29068
:1002D200EFC313FF0DBD08F0E4FDC290EEC313FEA1
:0E02E200309103430680D2900DBD08EEAF06AA
:0102F00022EB
:1003A500EF75F00A84FEEF75F00A84AFF0EEC454E1
:0303B500F02FFF27
:0103B8002222
:1003DD00EFC4540FFEEF540FFFEE75F00AA42FFF7C
:0103ED0022ED
:10019E00E4FD7F8E1202F1AF111203A5AD077F8031
:1001AE001202F1AF121203A5AD077F821202F1AF58
:1001BE00131203A5AD077F841202F1AF141203A52B
:1001CE00AD077F861202F1AF151203A5AD077F882A
:1001DE001202F1AF161203A5AD077F8A1202F1AF1C
:0B01EE00171203A5AD077F8C0202F181
:02031C00AC072C
:10031E00E4FD7F8E1202F1E4FBAF041202C27411EF
:10032E002BF8A6070C0C0BBB07EF7D807F8E02020D
:01033E00F1CD
:1001F9007B2DE4FD7F0712037A7F0A12037A7F0DB4
:1002090012037A7B3A0D7F0812037A7F0B12037A65
:10021900AB117F0C12035DAB127F0912035DAB13A7
:100229007F0612035DAB141D7F0E12035DAB157FB4
:100239000B12035DAB167F0812035DAB177F050236
:02024900035D53
:10024B0078087C007D007BFF7A0379D77E007F06E0
:10025B001200D312019EC2A6C2A71203917BFF7A92
:10026B000379CBE4FDFF1202917BFF7A0379D10D69
:10027B00E4FF1202917F8112031C1201F97FE87EC9
:06028B000312033F80EFA7
:03000000020112E8
:0C011200787FE4F6D8FD758117020159D2
:10000300E709F608DFFA8046E709F208DFFA803EDF
:1000130088828C83E709F0A3DFFA8032E309F608CC
:10002300DFFA8078E309F208DFFA807088828C8334
:10003300E309F0A3DFFA806489828A83E0A3F608E8
:10004300DFFA805889828A83E0A3F208DFFA804CC2
:1000530080D280FA80C680D4806980F28033801099
:1000630080A680EA809A80A880DA80E280CA803302
:1000730089828A83ECFAE493A3C8C582C8CCC5837A
:10008300CCF0A3C8C582C8CCC583CCDFE9DEE7804A
:100093000D89828A83E493A3F608DFF9ECFAA9F0C9
:1000A300EDFB2289828A83ECFAE0A3C8C582C8CC1F
:1000B300C583CCF0A3C8C582C8CCC583CCDFEADE38
:1000C300E880DB89828A83E493A3F208DFF980CC9A
:1000D30088F0EF60010E4E60C388F0ED2402B40493
:1000E3000050B9F582EB2402B4040050AF2323453A
:0600F3008223900053730C
:1000F900BB010689828A83E0225002E722BBFE0205
:09010900E32289828A83E4932237
:10011E0002024BE493A3F8E493A34003F68001F2AA
:10012E0008DFF48029E493A3F85407240CC8C333E2
:10013E00C4540F4420C8834004F456800146F6DFB1
:10014E00E4800B010204081020408090040EE47E2F
:10015E00019360BCA3FF543F30E509541FFEE493A6
:10016E00A360010ECF54C025E060A840B8E493A36D
:10017E00FAE493A3F8E493A3C8C582C8CAC583CA98
:10018E00F0A3C8C582C8CAC583CADFE9DEE780BE50
:0104170000E4
:00000001FF
